:100000000C9434000C945D000C945D000C945D0025
:100010000C945D000C945D000C9480010C945D00C8
:100020000C945D000C945D000C945D000C9497089A
:100030000C945D000C945D000C94F6070C945D002C
:100040000C945D000C945D000C945D000C945D00BC
:100050000C945D000C945D000C945D000C94B7084A
:100060000C945D000C945D0011241FBECFEFD8E00E
:10007000DEBFCDBF14BE0FB6F894A8958091600086
:10008000886180936000109260000FBE11E0A0E0D4
:10009000B1E0ECE8FEE102C005900D92AE30B10790
:1000A000D9F721E0AEE0B1E001C01D92A037B20760
:1000B000E1F70E94F80B0C94320F0C9400000895A5
:1000C000809100019091010101969093010180932C
:1000D00000010E94E00260916E0180916D010E941A
:1000E000DB028091000180FD07C084E00E9473085C
:1000F00080E69AEE0C94CE0280E10E94730880E6BE
:100100009AEE0C94CE02089590E080E00895089550
:10011000559854983B9A3A9A3D983C980895559A28
:10012000549A3B983A983D983C980895559854981D
:100130003B983A983D983C980895BF92CF92DF92B1
:10014000EF92FF920F931F93CF93DF93F89414B81D
:1001500017B81AB815B818B81BB8529A5A9A14BCDE
:1001600085E085BD8FEF87BD82E080936E001092A1
:100170008000109281002FE83BE0309389002093AB
:10018000880080936F005398239891EA9093B00071
:100190008093B1001092B4001092B3008BE080BF46
:1001A00083E080937F0086E080937C0083E88093E7
:1001B0007A0080917A00806480937A0080917A003E
:1001C00086FDFCCF10927C0083EA80937A0081E068
:1001D00080937B0081E090E00E94C80E8F3F11F079
:1001E0008093660010923901C1E0C0931201C09360
:1001F00056011092300110926A0180E990E00E944D
:10020000C80E80932F0180912F01887311F0C09345
:100210002F0110925A01109259018FEF90E09093A4
:1002200058018093570110923501109236011092B7
:1002300037011092380181E08093110182E49FE040
:10024000909369018093680180EB90E00E94C80E52
:10025000C82F81EB90E00E94C80ED82FD0936C017C
:10026000C0936B0185E090E00E94C80E80936F01FF
:1002700089E090E00E94C80E80935B018CE090E0E2
:100280000E94C80E80936D0184E190E00E94C80E28
:1002900080936E010AE311E083E1E82E81E0F82EFD
:1002A00096E5C92E91E0D92EC0E2D0E0CE010E94A1
:1002B000C80EB82ECE0101960E94C80E9B2DF801E3
:1002C000819391938F01CE01C0960E94C80EB82EE3
:1002D000CE01C1960E94C80E9B2DF7018193919388
:1002E0007F012296C016D10609F77894DF91CF914D
:1002F0001F910F91FF90EF90DF90CF90BF900895E6
:100300000F920FB60F921F9211248F930FB6F8948D
:10031000A8958091600088618093600010926000D1
:100320000FBE8F911F900F900FBE0F9018953C013C
:10033000EB0110E099249A9484E0C82E96E0A92E4F
:1003400023E8B22E38E1D32E49E2E42EE0911101E8
:10035000E730E0F7F0E0EC5CF04F0C94170C111173
:1003600002C0F3010995C092110111E0FE01099547
:10037000EDCF809139018111E9C0F894A0927C0001
:10038000B0927A0080917A00806480937A008091A4
:100390007A0086FDFCCF8091780090917900789466
:1003A0008B3AE2E09E070CF0CEC08938F2E09F075E
:1003B0000CF0CFC0873692400CF4C8C0559A549ABE
:1003C0003B9A3A9A3D983C98C1CF0E948800EFEC46
:1003D000F7E03197F1F700C000000E949600FFEFB0
:1003E00021EE84E0F15020408040E1F700C00000A1
:1003F000ADCFF89480B7877F80BF80917A008F77E8
:1004000080937A0014B817B81AB815B818B81BB882
:100410000FB6F894A895D09260000FBEE0926000ED
:100420008091600080648093600083B7817F8460E6
:1004300083BFF89483B7816083BF7894889583B72E
:100440008E7F83BF789410923901529A5A9A809184
:100450007A00806880937A0087E592E00197F1F74F
:1004600000C0000080B7886180BF559A549A3B9ABB
:100470003A9A3D9A3C9AEFE1FEE43197F1F700C0D9
:10048000000080913901811152C00E9496005ECF18
:1004900080910F01811121C01092B3001092B4001D
:1004A0001092100153CF4899F0CF559A54983B9829
:1004B0003A983D983C988FEC97E00197F1F700C08F
:1004C00000000E9496009FEFE1EEF4E09150E040C2
:1004D000F040E1F700C0000039CF90910F0180910A
:1004E0001001981709F432CF80910F018093100109
:1004F00080910F018130A1F180910F011092B30022
:100500009092B4008230E9F19092B3009092B400DE
:100510008FE295E70197F1F700C0000080916E012E
:1005200090916D019093B3008093B4000FCF0E941F
:100530008F00FFEF20E782E0F15020408040E1F79C
:1005400000C00000A2CF0E94880000CF0E948F0050
:10055000FDCE559854983B983A983D9A3C9AF6CEE1
:100560009092B3001092B4008FE295E70197F1F7F3
:1005700000C0000080916F018093B3001092B4001E
:10058000E5CEEFE2F5E73197F1F700C0000080918A
:100590005B011092B3008093B400D8CE9C01892BEC
:1005A00049F08FEC97E00197F1F700C0000021506F
:1005B0003109B9F708958093B3006093B4000895AA
:1005C0008FEF8093B3008093B4008FEC97E0019796
:1005D000F1F700C000008FEC97E00197F1F700C041
:1005E00000008FEC97E00197F1F700C000008FEC5E
:1005F00097E00197F1F700C000008FEC97E00197BA
:10060000F1F700C000008FEC97E00197F1F700C010
:1006100000008FEC97E00197F1F700C000008FEC2D
:1006200097E00197F1F700C000008FEC97E0019789
:10063000F1F700C000008FEC97E00197F1F700C0E0
:1006400000008FEC97E00197F1F700C000008FECFD
:1006500097E00197F1F700C000008FEC97E0019759
:10066000F1F700C000008FEC97E00197F1F700C0B0
:1006700000008FEC97E00197F1F700C000000895AB
:100680008091390181111EC0F89487E080937C002D
:1006900083E880937A0080917A00806480937A0066
:1006A00080917A0086FDFCCF80917800909179004E
:1006B00010927C0023EA20937A0021E020937B00B3
:1006C000789408958FEF9FEF0895809139018111FB
:1006D0001EC0F89488EC80937C0087E880937A00B1
:1006E00080917A00806480937A0080917A0086FD00
:1006F000FCCF809178009091790010927C0023EAE1
:1007000020937A0021E020937B00789408958FEF66
:100710009FEF08951F93CF93DF93F0E0E0E080E038
:1007200016E0D3E8C3EA71E0A1E0B0E060E8F89435
:1007300010937C00D0937A0090917A00906490930B
:100740007A0090917A0096FDFCCF2091780030914C
:100750007900217090917A00906490937A00909142
:100760007A0096FDFCCF409178005091790010926C
:100770007C00C0937A0070937B00789441702413BE
:1007800002C06150A1F6222339F09D010E2E01C056
:10079000220F0A94EAF7822B3196E830F10531F600
:1007A000DF91CF911F91089520910201822F880F30
:1007B000880F880F282790910E0181E0890F809380
:1007C0000E01822F82958695877082279695969541
:1007D00089278093020108958093020108958091F2
:1007E0003901811116C0F89486E080937C0083E87B
:1007F00080937A0080917A00806480937A0080915F
:100800007A0086FDFCCF80917800909179007894F1
:1008100008958FEF9FEF08952F923F924F925F922E
:100820006F927F928F929F92AF92BF92CF92DF9200
:10083000EF92FF920F931F93CF93DF93CDB7DEB765
:1008400028970FB6F894DEBF0FBECDBF7C01DC0148
:1008500012960D90BC91A02DB887AF83A438E3E029
:10086000BE070CF477C0DC01ED90FC9080913A015A
:1008700090913B01DD24DA948E159F0508F43BC26C
:1008800000913C0110913D010E151F0508F44AC36B
:1008900000913E0110913F010E151F0508F447C35A
:1008A00000914001109141010E151F0508F444C349
:1008B00000914201109143010E151F0508F441C338
:1008C00000914401109145010E151F0508F43EC327
:1008D00000914601109147010E151F0508F43FC312
:1008E00000914801109149010E151F0508F440C3FD
:1008F00000914A0110914B010E151F0508F441C3E8
:1009000000914C0110914D010E151F0508F446C2CF
:1009100000914E0110914F010E151F0508F43AC3C6
:1009200000915001109151010E151F0508F43BC3B1
:1009300000915201109153010E151F0508F43CC39C
:1009400000915401109155010E151F0508F43DC387
:100950001AE520C180911301909114018A179B0719
:1009600008F4B1C100911501109116010A171B0777
:1009700008F4F1C200911701109118010A171B0722
:1009800008F4F2C20091190110911A010A171B070D
:1009900008F4F3C200911B0110911C010A171B07F8
:1009A00008F4F8C100911D0110911E010A171B07E0
:1009B00008F4ECC200911F01109120010A171B07D7
:1009C00008F4EDC200912101109122010A171B07C2
:1009D00008F4EEC200912301109124010A171B07AD
:1009E00008F4EFC200912501109126010A171B0798
:1009F00008F49BC100912701109128010A171B07D9
:100A000008F4E8C20091290110912A010A171B0776
:100A100008F4E4C200912B0110912C010A171B0766
:100A200008F4E0C200912D0110912E018DE02DE01F
:100A300030E00A171B0708F47BC1412C512C30ED24
:100A40003D8340E44E832CE0C22ED12CF601EE0F04
:100A5000FF1FED5EFE4F80819181D801A81BB90B6D
:100A60009D0150E040E029833A834B835C83CA01B7
:100A7000BD010E94550D9B01AC0169837A838B8374
:100A80009C8369817A818B819C810E94410C5B01EE
:100A90006C018F819885092E000CAA0BBB0B8983F2
:100AA0009A83AB83BC83BC01CD010E94570D3B01EF
:100AB0004C01980150E040E029833A834B835C83EA
:100AC000CA01B8010E94550D1B018C0192014D8194
:100AD0005E81A982BA82CB82DC8269817A818B8134
:100AE0009C810E94E30D9B01AC0129823A820B8319
:100AF0001C8369817A818B819C810E94400C9B01BF
:100B0000AC0169827A828B829C8269817A818B8135
:100B10009C810E94400C20E030E040E251E4698377
:100B20007A838B839C8369817A818B819C810E94EB
:100B3000E30D69837A838B839C8369817A818B81BE
:100B40009C810E941F0D8B01A982BA82CB82DC821C
:100B500069817A818B819C810E941F0D69837A83D0
:100B60008B839C83C80169817A810E94030CD62EF5
:100B70004F8158854D3B52400CF409C1D701ED908F
:100B8000FC9080913A0190913B018E159F0508F0F1
:100B900077CE10E0BFEF81E2810FDB1609F4ACC025
:100BA0002D2D30E050E040E029833A834B835C8375
:100BB000CA01B9010E94550D6B017C01812F90E0A3
:100BC000B0E0A0E089839A83AB83BC83BC01CD01F4
:100BD0000E94550D4B015C012F813885032E000CBE
:100BE000440B550B29833A834B835C83CA01B901BB
:100BF0000E94570D8B018E839D839B01AC0160E0A9
:100C000070E081E694E40E94400C9601A70169839C
:100C10007A838B839C8369817A818B819C810E94FA
:100C2000E30D6B017C0120E030E04FE254E40983E6
:100C30001A838E818B839D819C8369817A818B81CC
:100C40009C810E94400C9401A50169837A838B8367
:100C50009C8369817A818B819C810E94E30D9B0139
:100C6000AC01C982DA82EB82FC8269817A818B8154
:100C70009C810E94410C20E030E048E453E4698309
:100C80007A838B839C8369817A818B819C810E948A
:100C9000AD0C20E030E044E052E469837A838B833A
:100CA0009C8369817A818B819C810E94410C69833C
:100CB0007A838B839C8369817A818B819C810E945A
:100CC000260D862F19C0AD3BB240ACF0D701ED9098
:100CD000FC9080913A0190913B01D12C8E159F059B
:100CE00008F0CECD812C912CA12CB12CC12CD12C73
:100CF000E12CF12C71CF81E228960FB6F894DEBF7B
:100D00000FBECDBFDF91CF911F910F91FF90EF905C
:100D1000DF90CF90BF90AF909F908F907F906F901B
:100D20005F904F903F902F90089589E029E030E048
:100D30006901F1E0CF1AD108282F30E050E040E0FF
:100D400029833A834B835C83CA01B9010E94550D04
:100D500020E030E040E05FE369837A838B839C830B
:100D600069817A818B819C810E94E30D20E030E0D3
:100D7000A90169837A838B839C8369817A818B81C2
:100D80009C810E94410C2B018D839E835FCE81E26A
:100D9000860FB2CF84E024E030E0CACF59E0652E60
:100DA000E9E0F0E0EE0FFF1FE85CFE4F80819181EB
:100DB000D801A81BB90B9D0150E040E029833A837C
:100DC0004B835C83CA01BD010E94550D9B01AC01A0
:100DD00069837A838B839C8369817A818B819C81EF
:100DE0000E94410C962EA72EB82EC92EC701FF0CCB
:100DF000AA0BBB0B89839A83AB83BC83BC01CD0157
:100E00000E94570D762E872E7C01980150E040E01D
:100E100029833A834B835C83CA01B8010E94550D34
:100E20002B018C01862D90E0B0E0A0E089839A83AD
:100E3000AB83BC83BC01CD010E94550D20E030E0A6
:100E400040E05FE369837A838B839C8369817A8145
:100E50008B819C810E94E30D20E030E0A901698331
:100E60007A838B839C8369817A818B819C810E94A8
:100E7000410C292D3A2D4B2D5C2D69837A838B8370
:100E80009C8369817A818B819C810E94E30D9B0107
:100E9000AC0149825A820B831C8369817A818B81E0
:100EA0009C810E94400C9B01AC0179828A82EB827A
:100EB000FC8269817A818B819C810E94400C20E0B8
:100EC00030E040E251E469837A838B839C836981BB
:100ED0007A818B819C810E94E30D69837A838B8365
:100EE0009C8369817A818B819C810E941F0D8B017B
:100EF0009982AA82BB82CC8269817A818B819C8112
:100F00000E941F0D69837A838B839C83C80169814A
:100F10007A810E94030C162F6F3F09F03BCE81E2CD
:100F20008D0DEACE66246394E1E0F0E03BCF82E0F1
:100F3000682EE2E0F0E036CFB3E06B2EE3E0F0E0C5
:100F400031CFA4E06A2EE4E0F0E02CCFF5E06F2E84
:100F5000E5E0F0E027CF81E021E030E0E9CEE6E017
:100F60006E2EE6E0F0E01ECF82E022E030E0E0CE40
:100F700077E0672EE7E0F0E015CF83E023E030E094
:100F8000D7CE68E0662EE8E0F0E00CCF85E025E003
:100F900030E0CECE4AE0642EEAE0F0E003CF86E017
:100FA00026E030E0C5CE3BE0632EEBE0F0E0FACE89
:100FB00087E027E030E0BCCE2CE0622EECE0F0E0F1
:100FC000F1CE88E028E030E0B3CE9DE0692EEDE080
:100FD000F0E0E8CE8AE02AE030E0AACE8BE02BE019
:100FE00030E0A6CE8CE02CE030E0A2CE1F920F9233
:100FF0000FB60F9211242F933F934F935F936F93EC
:101000007F938F939F93AF93BF93EF93FF938091C1
:10101000590190915A012091570130915801820F46
:10102000931F90935A01809359018FEF90E0909312
:101030005801809357018FEF87BD809135019091C2
:101040003601A0913701B09138010196A11DB11D63
:101050008093350190933601A0933701B093380106
:101060008091390181110FC08091680190916901CF
:101070002091590130915A018217930720F48091F1
:101080001101843089F0FF91EF91BF91AF919F9151
:101090008F917F916F915F914F913F912F910F9021
:1010A0000FBE0F901F901895E0910501F091060179
:1010B0000995009741F30E94750B882351F0E09148
:1010C0000301F0910401099510925A0110925901FF
:1010D000DACF0E94B80E9C01992790935801809313
:1010E000570127BDD0CF80FF11C0559A81FF11C095
:1010F000549A82FF11C03B9A83FF11C03A9A84FF31
:1011000011C03D9A85FF11C03C9A0895559881FD04
:10111000EFCF549882FDEFCF3B9883FDEFCF3A9805
:1011200084FDEFCF3D9885FDEFCF3C9808951F9249
:101130001FB61F9211248F939F93109281001092DB
:1011400085001092840081E0809312018093560103
:101150001092390110927C0093EA90937A00809368
:101160007B009F918F911F901FBE1F9018951F921B
:101170000F920FB60F9211240F931F932F933F934B
:101180004F935F936F937F938F939F93AF93BF938F
:10119000EF93FF93CF93DF9300D000D0CDB7DEB7AE
:1011A000209184003091850041E040933901809185
:1011B00012018823D9F11092850010928400409387
:1011C000810010926A0110921201809156018823C9
:1011D000A1F080917A0086FDFCCF809178009091FB
:1011E0007900909334018093330181E080937C00F7
:1011F00093EA90937A0080937B000F900F900F906A
:101200000F90DF91CF91FF91EF91BF91AF919F919F
:101210008F917F916F915F914F913F912F911F918E
:101220000F910F900FBE0F901F901895C90187580E
:10123000910984379940A0F01092810010928500A6
:10124000109284004093120140935601109239018C
:1012500010927C0083EA80937A0040937B00CDCF8C
:1012600026583109A4EFB0E00E941D0C69837A83EF
:101270008B839C838C0122273327883008F465C038
:10128000409312018091560181113CC08091300140
:10129000E82FF0E0E45AFE4F90916A0190838F5F4F
:1012A000809330018C3009F0A8CF10928100109209
:1012B00085001092840040935601109239010091EC
:1012C0006601109167018CE591E00E94BD0A081744
:1012D000190709F092CFE0916501E7FF48C098E750
:1012E0009E0F933030F0539823981092B4001092D0
:1012F000B300E058EB3008F080CFF0E0E55CF04F51
:101300000C94170C80917A0086FDFCCF80917800B8
:1013100090917900909332018093310110927C007A
:1013200083EA80937A0081E080937B0090916A0148
:101330009923C1F0109281001092850010928400D0
:10134000809356011092390158CF81E090E09C01C2
:1013500001C0220F0A95EAF780916A01822B8093DF
:101360006A014BCF109256011092300146CFE091A6
:101370000701F091080161E371E08CE591E00995C6
:101380003CCF80915C01823009F481C008F068C0D4
:10139000882309F4BAC080915D0190915E01909319
:1013A0006C0180936B0110920F01809111018630C6
:1013B00009F423CF539A239A1092B4001092B300E9
:1013C00086E08093110119CF80911101863079F068
:1013D000539A239A1092B4001092B3000E94960080
:1013E00010920F011092100186E08093110120915C
:1013F0005C0181E090E002C0880F991F2A95E2F716
:1014000020916B0130916C0182239323892B09F485
:1014100079C081E080930F01F0CE82E080931101CA
:10142000ECCE85E080931101E8CE81E0809311013C
:10143000E4CE10921101E1CE80911101833009F4C4
:10144000DCCE80911101843009F4D7CE539A239ACF
:101450001092B4001092B30083E080931101CDCEBE
:10146000833061F1843009F0A0CF20910F01809189
:101470006201909161012330C1F01092100123E0CC
:1014800020930F0190936D0180936E018ECF909108
:101490000F0180915F019130F9F01092100191E0FD
:1014A00090930F0180936F0180CF20916E012813DC
:1014B000E4CF20916D012913E0CF77CF90910F01F8
:1014C00080916001923069F01092100192E0909347
:1014D0000F0180935B0169CF90916F019813DDCF6D
:1014E00064CF90915B019813EFCF5FCFF0E0E0E025
:1014F000099580916E008D7F80936E0016BCE0E0B0
:10150000F0E7099510920F0178CE80911101863095
:1015100009F073CE60916B0180EB90E00E94D00ED9
:1015200060916C0181EB90E00E94D00E60916F01A0
:1015300085E090E00E94D00E60915B0189E090E030
:101540000E94D00E60916D018CE090E00E94D00E60
:1015500060916E0184E190E00E94D00E5398239830
:101560001092B4001092B30081E080931101809139
:101570005C01882309F441CE18CFFC0120818FEF54
:101580009FEF8227082E8295807F8025092E982F35
:1015900082958F700826869598278927880F880F4F
:1015A000880F802521818227082E8295807F8025C3
:1015B000092E982F82958F7008268695982789275F
:1015C000880F880F880F802522818227082E829518
:1015D000807F8025092E982F82958F70082686950A
:1015E00098278927880F880F880F802523818227D5
:1015F000082E8295807F8025092E982F82958F70E6
:101600000826869598278927880F880F880F8025B8
:1016100024818227082E8295807F8025092E982F8D
:1016200082958F700826869598278927880F880FBE
:10163000880F802525818227082E8295807F80252E
:10164000092E982F82958F700826869598278927CE
:10165000880F880F880F802526818227082E829583
:10166000807F8025092E982F82958F700826869579
:1016700098278927880F880F880F80252781822740
:10168000082E8295807F8025092E982F82958F7055
:101690000826869598278927880F880F880F802528
:1016A00020858227082E8295807F8025092E982FFD
:1016B00082958F700826869598278927880F880F2E
:1016C000880F802521858227082E8295807F80259E
:1016D000092E982F82958F7008268695982789273E
:1016E000880F880F880F802508950FB6F894A4B14D
:1016F00020912F012A2B24B921E030912F01203095
:1017000029F0000025B1232B25B904C000000000FA
:10171000000000C0000000000000309525B1232328
:1017200025B92EEA2A95F1F72BEE30B735FF0AC01E
:10173000A4B930912F01309525B1232325B90FBECF
:1017400080E0089500002A9581F721E030912F0173
:10175000203029F0000025B1232B25B904C000005A
:101760000000000000C0000000000000309525B11E
:10177000232325B9000024E52A95F1F7FC018CE02C
:10178000619170E0660F771F616072609AE041E0DE
:1017900050E09A0126233723232B30912F0120304C
:1017A00029F0000025B1232B25B904C0000000005A
:1017B000000000C0000000000000309525B1232388
:1017C00025B9000021E52A95F1F7440F551F9A9598
:1017D00001F78A95A9F620B7206120BFA4B93091FE
:1017E0002F01309525B1232325B90FBE81E008953F
:1017F0000E949D0060E670E08FE590E00E949701F6
:1018000090E080E0089597FB072E16F4009407D02F
:1018100077FD09D00E942C0C07FC05D03EF4909572
:1018200081959F4F0895709561957F4F0895EE0FB4
:10183000FF1F0590F491E02D0994A29FB001B39F82
:10184000C001A39F700D811D1124911DB29F700DC9
:10185000811D1124911D0895AA1BBB1B51E107C0D6
:10186000AA1FBB1FA617B70710F0A61BB70B881F30
:10187000991F5A95A9F780959095BC01CD010895BF
:101880005058BB27AA270E94580C0C94A90D0E94FF
:101890009B0D38F00E94A20D20F039F49F3F19F4FF
:1018A00026F40C94980D0EF4E095E7FB0C94920D41
:1018B000E92F0E94BA0D58F3BA176207730784071D
:1018C000950720F079F4A6F50C94DC0D0EF4E09564
:1018D0000B2EBA2FA02D0B01B90190010C01CA01EA
:1018E000A0011124FF27591B99F0593F50F4503E95
:1018F00068F11A16F040A22F232F342F4427585F87
:10190000F3CF469537952795A795F0405395C9F79E
:101910007EF41F16BA0B620B730B840BBAF0915056
:10192000A1F0FF0FBB1F661F771F881FC2F70EC0F5
:10193000BA0F621F731F841F48F4879577956795C8
:10194000B795F7959E3F08F0B0CF9395880F08F0B4
:101950009927EE0F9795879508950E94C10C0C94D6
:10196000A90D0E94A20D58F00E949B0D40F029F491
:101970005F3F29F00C94920D51110C94DD0D0C94E5
:10198000980D0E94BA0D68F39923B1F3552391F392
:10199000951B550BBB27AA2762177307840738F0DE
:1019A0009F5F5F4F220F331F441FAA1FA9F335D03B
:1019B0000E2E3AF0E0E832D091505040E695001CEF
:1019C000CAF72BD0FE2F29D0660F771F881FBB1FA9
:1019D000261737074807AB07B0E809F0BB0B802D87
:1019E000BF01FF2793585F4F3AF09E3F510578F0B3
:1019F0000C94920D0C94DD0D5F3FE4F3983ED4F30C
:101A0000869577956795B795F7959F5FC9F7880F86
:101A1000911D9695879597F90895E1E0660F771FD8
:101A2000881FBB1F621773078407BA0720F0621B69
:101A3000730B840BBA0BEE1F88F7E09508950E9494
:101A4000260D6894B1110C94DD0D08950E94C20D0D
:101A500088F09F5798F0B92F9927B751B0F0E1F06F
:101A6000660F771F881F991F1AF0BA95C9F714C01F
:101A7000B13091F00E94DC0DB1E008950C94DC0DC2
:101A8000672F782F8827B85F39F0B93FCCF3869558
:101A900077956795B395D9F73EF4909580957095B5
:101AA00061957F4F8F4F9F4F0895E89409C097FB32
:101AB0003EF490958095709561957F4F8F4F9F4F25
:101AC0009923A9F0F92F96E9BB279395F695879569
:101AD00077956795B795F111F8CFFAF4BB0F11F42C
:101AE00060FF1BC06F5F7F4F8F4F9F4F16C08823D3
:101AF00011F096E911C0772321F09EE8872F762F09
:101B000005C0662371F096E8862F70E060E02AF049
:101B10009A95660F771F881FDAF7880F9695879535
:101B200097F9089597F99F6780E870E060E008955D
:101B30009FEF80EC089500240A94161617061806E5
:101B40000906089500240A941216130614060506C1
:101B50000895092E0394000C11F4882352F0BB0F52
:101B600040F4BF2B11F460FF04C06F5F7F4F8F4FB5
:101B70009F4F089557FD9058440F551F59F05F3FF0
:101B800071F04795880F97FB991F61F09F3F79F09F
:101B900087950895121613061406551FF2CF469521
:101BA000F1DF08C0161617061806991FF1CF8695A3
:101BB0007105610508940895E894BB276627772787
:101BC000CB0197F908950E94F60D0C94A90D0E947F
:101BD0009B0D38F00E94A20D20F0952311F00C947B
:101BE000920D0C94980D11240C94DD0D0E94BA0DE9
:101BF00070F3959FC1F3950F50E0551F629FF00160
:101C0000729FBB27F00DB11D639FAA27F00DB11D78
:101C1000AA1F649F6627B00DA11D661F829F222701
:101C2000B00DA11D621F739FB00DA11D621F839F88
:101C3000A00D611D221F749F3327A00D611D231F5E
:101C4000849F600D211D822F762F6A2F11249F57AC
:101C500050409AF0F1F088234AF0EE0FFF1FBB1FAF
:101C6000661F771F881F91505040A9F79E3F51056E
:101C700080F00C94920D0C94DD0D5F3FE4F3983EE0
:101C8000D4F3869577956795B795F795E7959F5F18
:101C9000C1F7FE2B880F911D9695879597F90895AA
:101CA000CF92DF92EF92FF92CF93DF93CDB7DEB763
:101CB0002A970FB6F894DEBF0FBECDBF89879A87EB
:101CC000A985BA852D913D914D915C9129833A83E7
:101CD0004B835C83232B242B252B41F424E239ED09
:101CE0004BE557E029833A834B835C8369817A8192
:101CF0008B819C812DE133EF41E050E00E94DE0EAC
:101D000069017A01A7EAB1E49B01AC010E94FD0ED2
:101D100069837A838B839C83ACEEB4EFA701960131
:101D20000E940B0F9B01AC0189819A81AB81BC8120
:101D3000820F931FA41FB51FB7FF03C00197A1090E
:101D4000B048E985FA8580839183A283B3839F7726
:101D50002A960FB6F894DEBF0FBECDBFDF91CF91AC
:101D6000FF90EF90DF90CF9008950E94500E08955D
:101D700089E091E00E94500E0895B0E0A0E08093C9
:101D8000090190930A01A0930B01B0930C010895EF
:101D9000F999FECF92BD81BDF89A992780B5089533
:101DA000262FF999FECF1FBA92BD81BD20BD0FB677
:101DB000F894FA9AF99A0FBE01960895052E97FBAA
:101DC0001EF400940E94F50E57FD07D00E94100FDC
:101DD00007FC03D04EF40C94F50E509540953095C9
:101DE00021953F4F4F4F5F4F089590958095709587
:101DF00061957F4F8F4F9F4F08950E941D0CA59FA7
:101E0000900DB49F900DA49F800D911D11240895F5
:101E1000B7FF0C94FD0E0E94FD0E821B930B0895DC
:101E2000A1E21A2EAA1BBB1BFD010DC0AA1FBB1FDE
:101E3000EE1FFF1FA217B307E407F50720F0A21B50
:101E4000B30BE40BF50B661F771F881F991F1A94BD
:101E500069F760957095809590959B01AC01BD01E7
:101E6000CF010895F894FFCFF901E501B901AF0161
:101E7000B60153024802790AFD08FD08760A190ADC
:0C1E8000150A110A0D0A1C0AE409C10928
:0E1E8C000100AA87008400830001000000000E
:00000001FF
