:107000000C9434380C9451380C9451380C945138F9
:107010000C9451380C9451380C9451380C945138CC
:107020000C9451380C9451380C9451380C94C0394C
:107030000C9451380C9451380C949B390C94513861
:107040000C9451380C9451380C9451380C9451389C
:107050000C9451380C9451380C9451380C94E039FC
:107060000C9451380C94513811241FBECFEFD8E046
:10707000DEBFCDBF11E0A0E0B1E0E4EBF7E702C076
:1070800005900D92A630B107D9F721E0A6E0B1E056
:1070900001C01D92A63CB207E1F70E948B3B0C9405
:1070A000D83B0C940038CF93DF93FC018185813865
:1070B000D9F0823879F0803809F4D4C08091230166
:1070C000811105C081E085BF15BE0C940000DF91E1
:1070D000CF91089580818093260190912301891793
:1070E00089F3DF91CF910895F0932501E093240176
:1070F0008081C091AD018C1751F18093AD018181E8
:1071000090E022813381DC01AA0FBB1FA75DBE4F37
:107110002D933C9324813581DC01AA0FBB1FA55D13
:10712000BE4F2D933C9326813781880F991FFC0118
:10713000E35DFE4F3183208386E090E09093280149
:107140008093270180E1DF91CF910C949C392091AD
:107150002701309128012A5F3F4F818190E04281D1
:107160005381DC01AA0FBB1FA75DBE4F4D935C93FB
:1071700044815581DC01AA0FBB1FA55DBE4F4D9315
:107180005C9346815781880F991FFC01E35DFE4F98
:107190005183408330932801209327012038310503
:1071A00088F2EC2FE695E695E695F0E0EA5FFE4F73
:1071B000808190E02C2F277002C0959587952A95A5
:1071C000E2F780FDBFCFF999FECF80E8C89FE001CC
:1071D000112483E0FE0180935700E89507B600FC78
:1071E000FDCF69EA71E0A9E2B1E0AE014952514038
:1071F00021E0FA01EA0FFB1F8D919D910C01209374
:107200005700E89511246A177B0799F785E0FE017E
:1072100080935700E89507B600FCFDCF81E180938D
:107220005700E8958CE00E949C398091AD01E82FD1
:10723000E695E695E695F0E0EA5FFE4F877021E07F
:1072400030E001C0220F8A95EAF78081822B80838B
:10725000809123018F5F80932301909126018913F0
:1072600036CF30CF0C940038DF91CF91089581E074
:1072700085BF15BE0C9400000895089590E080E04D
:1072800008950895F89414B817B81AB815B818B82E
:107290001BB8529A5A9A14BC85E085BD8FEF87BD02
:1072A00082E080936E0010928000109281002FE89F
:1072B0003BE0309389002093880080936F005398BF
:1072C000239891EA9093B0008093B1001092B4009B
:1072D0001092B3008BE080BF83E080937F0086E054
:1072E00080937C0083E880937A0080917A008064A8
:1072F00080937A0080917A0086FDFCCF10927C000A
:1073000083EA80937A0081E080937B0081E090E0C3
:107310000E94D03B8F3F11F0809366001092B50120
:1073200081E08093AE018093B6011092B00110927B
:10733000C50178940895189580FF11C0559A81FF72
:1073400011C0549A82FF11C03B9A83FF11C03A9A30
:1073500084FF11C03D9A85FF11C03C9A089555984D
:1073600081FDEFCF549882FDEFCF3B9883FDEFCFA7
:107370003A9884FDEFCF3D9885FDEFCF3C98089576
:107380001F921FB61F9211248F939F93109281001A
:10739000109285001092840081E08093AE0180936A
:1073A000B6011092B50110927C0093EA90937A0096
:1073B00080937B009F918F911F901FBE1F90189507
:1073C0001F920F920FB60F9211240F931F932F93BA
:1073D0003F934F935F936F937F938F939F93AF935D
:1073E000BF93EF93FF93CF93DF9300D000D0CDB73F
:1073F000DEB7209184003091850041E04093B501D3
:107400008091AE018823D9F11092850010928400FA
:10741000409381001092C5011092AE018091B60197
:107420008823A1F080917A0086FDFCCF80917800BE
:10743000909179009093B4018093B30181E080939F
:107440007C0093EA90937A0080937B000F900F90DA
:107450000F900F90DF91CF91FF91EF91BF91AF917E
:107460009F918F917F916F915F914F913F912F915C
:107470001F910F910F900FBE0F901F901895C9018B
:107480008758910984379940A0F01092810010929A
:107490008500109284004093AE014093B601109293
:1074A000B50110927C0083EA80937A0040937B00C0
:1074B000CDCF26583109A4EFB0E00E94C13B6983CB
:1074C0007A838B839C838C0122273327883008F4AE
:1074D00058C04093AE018091B60181112FC08091B8
:1074E000B001E82FF0E0E954FE4F9091C501908380
:1074F0008F5F8093B0018C3009F0A8CF109281008B
:1075000010928500109284004093B6011092B5014C
:107510000091C1011091C20187EB91E00E94D33A22
:107520000817190709F092CFE0910401F0910501C5
:1075300061EB71E087EB91E0099588CF80917A004B
:1075400086FDFCCF80917800909179009093B201F4
:107550008093B10110927C0083EA80937A0081E0ED
:1075600080937B009091C5019923C1F01092810016
:1075700010928500109284008093B6011092B5019C
:1075800065CF81E090E09C0101C0220F0A95EAF7E7
:107590008091C501822B8093C50158CF1092B6010E
:1075A0001092B00153CFFC0120818FEF9FEF822713
:1075B000082E8295807F8025092E982F82958F70C6
:1075C0000826869598278927880F880F880F802599
:1075D00021818227082E8295807F8025092E982F71
:1075E00082958F700826869598278927880F880F9F
:1075F000880F802522818227082E8295807F802512
:10760000092E982F82958F700826869598278927AE
:10761000880F880F880F802523818227082E829566
:10762000807F8025092E982F82958F700826869559
:1076300098278927880F880F880F80252481822723
:10764000082E8295807F8025092E982F82958F7035
:107650000826869598278927880F880F880F802508
:1076600025818227082E8295807F8025092E982FDC
:1076700082958F700826869598278927880F880F0E
:10768000880F802526818227082E8295807F80257D
:10769000092E982F82958F7008268695982789271E
:1076A000880F880F880F802527818227082E8295D2
:1076B000807F8025092E982F82958F7008268695C9
:1076C00098278927880F880F880F80252085822793
:1076D000082E8295807F8025092E982F82958F70A5
:1076E0000826869598278927880F880F880F802578
:1076F00021858227082E8295807F8025092E982F4C
:1077000082958F700826869598278927880F880F7D
:10771000880F80250895F89481E085BF82E085BFB9
:10772000E6E0F1E08CE1DF011D928A95E9F78CED4E
:1077300080932601109223011092AD01109228012E
:1077400010922701789483E598E390930501809344
:1077500004010E94423980E30E949C398FE097E245
:107760000197F1F700C0000080E00E949C399FEF74
:10777000A9E6B8E19150A040B040E1F700C0000098
:10778000EACFA29FB001B39FC001A39F700D811DDE
:107790001124911DB29F700D811D1124911D08951A
:1077A000F999FECF92BD81BDF89A992780B50895C9
:0477B000F894FFCF7B
:0677B40041393E393D3968
:040000030000700089
:00000001FF
