:107000000C9434380C9446380C9446380C9446381A
:107010000C9446380C9446380C9446380C944638F8
:107020000C9446380C9446380C9446380C944638E8
:107030000C9446380C9446380C9446380C944638D8
:107040000C9446380C9446380C9448380C944638C6
:107050000C9446380C9446380C9446380C944638B8
:107060000C9446380C94463811241FBECFEFD8E05C
:10707000DEBFCDBF22E0A0E0B1E001C01D92A03292
:10708000B207E1F70E94013A0C94453C0C94003899
:107090001F920F920FB60F9211240F931F932F93ED
:1070A0003F934F935F936F937F938F939F93AF9390
:1070B000BF93CF93DF93EF93FF939091C6006091BE
:1070C0000401E62FF0E0EB5FFE4F80812091030189
:1070D00082279083282F2927209303016F5F64382C
:1070E000F8F460930401262F30E0F901EB5FFE4FC6
:1070F0004081453501F1FF91EF91DF91CF91BF9133
:10710000AF919F918F917F916F915F914F913F913F
:107110002F911F910F910F900FBE0F901F901895F8
:107120001092040130E020E060E0F901EB5FFE4FD7
:107130004081453501F78913DECF04E810E0E8010E
:10714000C21BD30B70E06B5F7E4FAE0188E991E00C
:107150000E943C3CC438D10591F0CE0188569E4F28
:107160009E012F5F3F4F41E050E02538310518F474
:10717000A8014C1B5D0B65E071E00E943C3C81E086
:10718000809302018091990180939701B4CFFC0113
:1071900020818FEF9FEF8227082E8295807F8025A8
:1071A000092E982F82958F70082686959827892713
:1071B000880F880F880F802521818227082E8295CD
:1071C000807F8025092E982F82958F7008268695BE
:1071D00098278927880F880F880F8025228182278A
:1071E000082E8295807F8025092E982F82958F709A
:1071F0000826869598278927880F880F880F80256D
:1072000023818227082E8295807F8025092E982F42
:1072100082958F700826869598278927880F880F72
:10722000880F802524818227082E8295807F8025E3
:10723000092E982F82958F70082686959827892782
:10724000880F880F880F802525818227082E829538
:10725000807F8025092E982F82958F70082686952D
:1072600098278927880F880F880F802526818227F5
:10727000082E8295807F8025092E982F82958F7009
:107280000826869598278927880F880F880F8025DC
:1072900027818227082E8295807F8025092E982FAE
:1072A00082958F700826869598278927880F880FE2
:1072B000880F802520858227082E8295807F802553
:1072C000092E982F82958F700826869598278927F2
:1072D000880F880F880F802521858227082E8295A8
:1072E000807F8025092E982F82958F70082686959D
:1072F00098278927880F880F880F802508950FB653
:10730000AAB1209101012A2B2AB921E03091010173
:10731000203029F000002BB1232B2BB904C0000032
:107320000000000000C000000000000030952BB1FC
:1073300023232BB92EEA2A95F1F72BEE30B735FF30
:107340000AC0AAB93091010130952BB123232BB982
:107350000FBE80E0089500002A9581F721E030916A
:107360000101203029F000002BB1232B2BB904C0E0
:1073700000000000000000C0000000000000309588
:107380002BB123232BB9000024E52A95F1F7FC014A
:107390008CE0619170E0660F771F616072609AE027
:1073A00041E050E09A0126233723232B309101013D
:1073B000203029F000002BB1232B2BB904C0000092
:1073C0000000000000C000000000000030952BB15C
:1073D00023232BB9000021E52A95F1F7440F551F0F
:1073E0009A9501F78A95A9F620B7206120BFAAB91E
:1073F0003091010130952BB123232BB90FBE81E0D1
:107400000895F894549A389A40985C9880B78068A8
:1074100080BF81E085BF82E085BF8CE090E09093E3
:10742000C5008093C4008091C0008D7F8093C00010
:107430008091C20086608093C2008091C1008869FB
:107440008093C100789480E1809301018BE8E82E5D
:1074500081E0F82EF0928A01E0928901F0921F02F9
:10746000E0921E02F0921D02E0921C02409A2FEF61
:1074700081EE94E0215080409040E1F700C0000090
:107480004098EFEFF1EE24E0E150F0402040E1F7CA
:1074900000C00000409A8FEF91EEE4E081509040F0
:1074A000E040E1F700C000004098FFEF21EE84E0EB
:1074B000F15020408040E1F700C00000409A9FEF6B
:1074C000E1EEF4E09150E040F040E1F700C0000050
:1074D00040982FEF81EE94E0215080409040E1F7FA
:1074E00000C00000409AEFEFF1EE24E0E150F040E0
:1074F0002040E1F700C0000040988FEF91EEE4E0FB
:1075000081509040E040E1F700C00000409AFFEF5A
:1075100021EE84E0F15020408040E1F700C00000FF
:1075200040989FEFE1EEF4E09150E040F040E1F749
:1075300000C000000AE112E091E8B92E29E0C22E55
:10754000DD24D394809102018823E1F3109202019B
:1075500080919701843009F4ACC008F051C08230AA
:1075600009F4ECC0833009F096C0E0911C02F09160
:107570001D0280919A018083E0911C02F0911D020E
:1075800080919B018183E0911C02F0911D0280910A
:107590009C01828380919D01838380919E018483DD
:1075A00080919F0185838091A00186838091A101B4
:1075B00087838091A20180878091A3018187809138
:1075C000A40182878091A5018387809102018111A6
:1075D000B9CF8BE891E00E947F39409A8FE697E11E
:1075E0000197F1F700C000004098EFE6F7E131970E
:1075F000F1F700C0000080910201882351F3A2CF6F
:10760000853009F4E8C0863009F09CCFE0911C0277
:10761000F0911D0280919A018083E0911C02F0910B
:107620001D0280919B018183E0911C02F0911D025B
:1076300080919C01828380919D01838380919E0132
:10764000848380919F0185838091A00186838091AE
:10765000A10187838091A20180878091A301818706
:107660008BE891E00E94C738909396018093950132
:107670008BE891E00E947F39409A8FE697E101976D
:10768000F1F700C000004098EFE6F7E13197F1F71D
:1076900000C0000057CF813009F054CF8091000125
:1076A00091E0811190E0909300018111E3C0409A34
:1076B00049CFB0929401E0918901F0918A018091C3
:1076C0009A0180831086F894CBE9D1E0A12C22C0E6
:1076D000A0918901B0918A018A2D869511968C938B
:1076E0001197129686E0FE0101900D928A95E1F7BE
:1076F0008BE891E00E94C7389093960180939501A2
:107700008BE891E00E947F39F6E0AF0E269624E8E0
:10771000A21621F0809102018823D1F27894409A38
:107720008FE19EE40197F1F700C000004098EFE17F
:10773000FEE43197F1F700C0000004CFE0911C0295
:10774000F0911D0280919A018083E0911C02F091DA
:107750001D0280919B018183E0911C02F0911D022A
:1077600080919C01828380919D01838380919E0101
:10777000848380919F0185838091A001868380917D
:10778000A10187838091A20180878091A3018187D5
:107790008BE891E00E94C738909396018093950101
:1077A000809102018111CECE8BE891E00E947F3959
:1077B000409A8FE697E10197F1F700C000004098EA
:1077C000EFE6F7E13197F1F700C000008091020188
:1077D000882351F3B7CEF7012C2D11922A95E9F7A2
:1077E000D0929401F894CAE9D1E0A0911E02B09120
:1077F0001F0288E0FE0101900D928A95E1F7E09169
:107800001E02F0911F0280819181892B79F482817F
:107810009381892B59F484819581892B39F4868150
:10782000811104C087819085892BA1F08BE891E0BC
:107830000E94C73890939601809395018BE891E060
:107840000E947F3985E88A95F1F7000028960C1789
:107850001D0759F67894409AEFE1FEE43197F1F76D
:1078600000C0000040988FE19EE40197F1F700C04E
:10787000000068CE409866CEFB01DC0102C001909A
:0E7880000D9241505040D8F70895F894FFCF74
:040000030000700089
:00000001FF
